:0300000002097E74
:0C097E00787FE4F6D8FD758108020800BF
:08090E008FA0D2B77F967E0096
:10091600E4FDFCC3ED9FEC9E5015E4FBFA0BBB0017
:0F092600010AEB647D4A70F50DBD00010C80E401
:01093500229F
:0A098A00C2B612090EC2B702091628
:0909590075F00A84E5F02430FF7A
:0A096200D2B612090EC2B702091640
:03000B0002085791
:10085700C0E0C0F0C083C082C0D075D000C000C067
:1008670001C002C003C004C005C006C00730B40AF7
:10087700C2B47D1D7C007FFB8008D2B47D597C000B
:100887007FF17E00120994D007D006D005D004D09E
:1008970003D002D001D000D0D0D082D083D0F0D006
:0208A700E0323D
:050994008F8C8D8A220A
:10096C00758901D2AFD2A97D597C037FF17E00023B
:02097C000994DC
:03099900D28C22DB
:03099C00C28C22E8
:1008A900C2B0859008AF081208E4AF087E00C3EF14
:1008B900940A74809480400AD3EF941974809480C8
:1008C9004005D2B4020999308C0E12099C7D597CDD
:0B08D900007FF17E00120994C2B422DF
:1008E400A9077FC67E0012098AE975F06484243062
:1008F400FF120962E975F00A84120959E9120959CB
:0A0904007FDF1209627F43020962DF
:100936007F387E0012098A7F017E0012098A7F06AF
:100946007E0012098A7F0C7E0012098A7F827E0051
:0309560002098A09
:10080000C2B47590FFD2B21209367F541209627FCA
:10081000651209627F6D1209627F701209627F653D
:100820001209627F721209627F611209627F74127B
:1008300009627F751209627F721209627F6512096F
:10084000627F3A12096212096CD2B0C2B1D2B120F1
:07085000B2FD1208A980F2BD
:00000001FF
