:03000000020800F3
:0C080000787FE4F6D8FD75810B020847F4
:0809B30002080000020A000026
:0309BC00D28C22B8
:0300030002099A55
:0D099A00C0E00509E50970020508D0E03253
:03001B00020917C0
:10091700C0E0C0F0C0D075D000C000C004C005C0A2
:1009270006C007AE08AF097C007D0312088CEC7087
:1009370042ED1460181460262402703730A00AC2F2
:10094700A0758CF4758A44802AD2A0800930A0044F
:10095700C2A08002D2A0758CFC758A17801530A0C2
:100967000AC2A0758CFB758A1D8008D2A0758CFD04
:10097700758A11D007D006D005D004D000D0D0D0CA
:04098700F0D0E0329A
:0F098B00758901758CFC758A1775A883D2B22205
:0C09A700D2A0D2B212098B1209BC80FE53
:10080C000209A7E493A3F8E493A34003F68001F252
:10081C0008DFF48029E493A3F85407240CC8C333ED
:10082C00C4540F4420C8834004F456800146F6DFBC
:10083C00E4800B01020408102040809009B3E47E90
:10084C00019360BCA3FF543F30E509541FFEE493B1
:10085C00A360010ECF54C025E060A840B8E493A378
:10086C00FAE493A3F8E493A3C8C582C8CAC583CAA3
:10087C00F0A3C8C582C8CAC583CADFE9DEE780BE5B
:0109BB00003B
:10088C00C2D5EC30E709B2D5E4C39DFDE49CFCEE87
:10089C0030E715B2D5E4C39FFFE49EFE1208C2C335
:1008AC00E49DFDE49CFC80031208C230D507C3E430
:0608BC009FFFE49EFE22F6
:1008C200BC000BBE0029EF8DF084FFADF022E4CC1A
:1008D200F875F008EF2FFFEE33FEEC33FCEE9DECE3
:1008E200984005FCEE9DFE0FD5F0E9E4CEFD22ED29
:1008F200F8F5F0EE8420D21CFEADF075F008EF2F73
:10090200FFED33FD4007985006D5F0F222C398FD63
:050912000FD5F0EA2200
:00000001FF
