:03000000020800F3
:0C080000787FE4F6D8FD75810B020847F4
:0809500002080000020A000089
:03095900D28C221B
:03000B0002088C5C
:10088C00C0E0E5094508702920910AE50B450A707E
:10089C0004D2918014050BE50B7002050AC2916419
:1008AC0009450A7004F50AF50B758CD8758AEF802A
:1008BC0055E509640145087015309108758C637510
:1008CC008ABF8006758CD8758AEFB2918038E5099D
:1008DC00640245087015309108758CC5758A67805F
:1008EC0006758CD8758AEFB291801BE509640345B7
:1008FC00087013309108758CF6758A3B8006758CE0
:09090C00D8758AEFB291D0E032F7
:0D094300758901758CFB758A9A75A8832251
:100915001209431209592092FDC3E5099403E5081C
:1009250064809480500A0509E50970EA050880E6A7
:0E093500E5096403450870DEF508F50980D871
:10080C00020915E493A3F8E493A34003F68001F2E4
:10081C0008DFF48029E493A3F85407240CC8C333ED
:10082C00C4540F4420C8834004F456800146F6DFBC
:10083C00E4800B0102040810204080900950E47EF3
:10084C00019360BCA3FF543F30E509541FFEE493B1
:10085C00A360010ECF54C025E060A840B8E493A378
:10086C00FAE493A3F8E493A3C8C582C8CAC583CAA3
:10087C00F0A3C8C582C8CAC583CADFE9DEE780BE5B
:01095800009E
:00000001FF
